S0110000536D617274486F6D652E7372656383
S11300000C942A000C94FD080C9447000C944700AF
S11300100C9447000C9447000C94BD090C94C70938
S11300200C94080A0C94490A0C947C090C943B091E
S11300300C9447000C9447000C9447000C94470020
S11300400C9447000C9447000C9447000C94470010
S11300500C94470011241FBECFE5D8E0DEBFCDBF0E
S113006012E0A0E6B0E0ECE6F6E102C005900D92E5
S1130070AA31B107D9F722E0AAE1B2E001C01D928A
S1130080AC33B207E1F70E9465050C94340B0C9471
S113009000001F93CF93DF931F92CDB7DEB710926A
S11300A01A0264E670E0CE0101960E94600789811D
S11300B0813009F4D8C082E790E00E949A0640E0BB
S11300C061E08DE790E00E9435072FEF83ED90E328
S11300D0215080409040E1F700C000000E94AD062E
S11300E08CE08093610088E890E00E949A0640E0EA
S11300F061E087E990E00E94350710E031C08FEF9E
S11301008093310204C00E948A0780933102809157
S113011031028F3FC1F34091610061E00E942A07E0
S11301202FEF82E597E0215080409040E1F700C036
S113013000004091610061E08AE20E942A078091F8
S113014061008F5F80936100612F70E080913102C4
S11301500E9442071F5F80911A028F5F80931A02E8
S113016080911A02843058F210921A028CE0809323
S113017061002FEF83ED90E3215080409040E1F740
S113018000C000000E94AD0684EA90E00E949A0636
S11301902FEF83ED90E3215080409040E1F700C0C1
S11301A000000E94AD0683EB90E00E949A0640E0B6
S11301B061E082EC90E00E94350714E031C08FEFDB
S11301C08093310204C00E948A0780933102809197
S11301D031028F3FC1F34091610061E00E942A0720
S11301E02FEF82E597E0215080409040E1F700C076
S11301F000004091610061E08AE20E942A07809138
S113020061008F5F80936100612F70E08091310203
S11302100E9442071F5F80911A028F5F80931A0227
S113022080911A02843058F22FEF83ED90E321502D
S113023080409040E1F700C000000E94AD0684EACF
S113024090E00E949A062FEF83ED90E321508040C6
S11302509040E1F700C000000E94AD0664E670E043
S113026081E00E9442070F90DF91CF911F91089582
S1130270CF92DF92EF92FF920F931F93CF93DF936E
S11302801F92CDB7DEB77C01D62E10921A020F2E24
S1130290F5E0CF2EF02DEDC00E94AD068FEC90E07E
S11302A00E949A0640E065E083E00E94140840E062
S11302B066E083E00E94140885E08093610065E0B5
S11302C081E00E94B70632C08FEF8093310204C0F0
S11302D00E948A0780933102809131028F3FC1F3DB
S11302E090911A02F701E90FF11D8083409161009A
S11302F061E0809131020E942A072FEF32E587E006
S1130300215030408040E1F700C00000409161007E
S113031061E08AE20E942A07809161008F5F8093E6
S1130320610080911A028F5F80931A0280911A02F1
S1130330843050F210921A020D2D10E018C0602F74
S113034070E0CE0101960E946007F701E10FF11DF4
S113035090818981981306C080911A028F5F8093DF
S11303601A0203C085E080931A021F5F0F5F809119
S11303701A02843020F3843031F59FEF23ED30E30B
S1130380915020403040E1F700C000000E94AD06CB
S11303908EED90E00E949A0641E066E083E00E94C0
S11303A014088FEF93ED20E3815090402040E1F753
S11303B000C000000E94AD0684E00E9436096894E3
S11303C0CC24C2F856C0853009F053C03FEF83ED0A
S11303D090E3315080409040E1F700C000000E945B
S11303E0AD068DEE90E00E949A06809160008150E7
S11303F08093600085E00E94360960E081E00E94FD
S1130400B7068CEF90E00E949A0660916000062E79
S1130410000C770B880B990B0E94C0062FEF33ED6D
S113042080E3215030408040E1F700C0000010928A
S11304301A028091600081111CC041E065E083E0F4
S11304400E9414080E94AD0689E091E00E949A0679
S11304509AEA26EE36E981E091502040304080400F
S1130460D9F700000E94AD0610921A0283E080932F
S1130470600095E0C91609F40FCF8C2D0F90DF9121
S1130480CF911F910F91FF90EF90DF90CF9008953F
S11304900F931F93CF93DF93CDB7DEB728970FB693
S11304A0F894DEBF0FBECDBF15E03EC00E94AD067E
S11304B08DE191E00E949A0640E061E08BE291E0D8
S11304C00E9435078FEF8093310204C00E948A078F
S11304D080933102809131028F3FC1F3803319F050
S11304E0813349F010C060E0CE0101960E943801CA
S11304F0182F00E019C064E0CE0105960E9438016F
S1130500182F01E011C00E94AD068BE391E00E9418
S11305109A062FEF83ED90E3215080409040E1F75D
S113052000C000000E94AD06153009F4BFCF802F33
S113053028960FB6F894DEBF0FBECDBFDF91CF91E2
S11305401F910F910895CF92DF92EF92FF921F9324
S1130550CF93DF931F92CDB7DEB76C01162FE62E33
S1130560F12CB701CE0101960E946007193C81F07D
S113057018F4183C31F020C01A3C89F01B3CB1F04F
S11305801BC00E94AD0689E491E00E949A0614C043
S11305900E94AD0682E591E00E949A060DC00E9479
S11305A0AD068BE591E00E949A0606C00E94AD0656
S11305B084E691E00E949A0689819FEF980F9E3FFE
S11305C028F08BE991E00E949A0606C0813021F45C
S11305D08DE691E00E949A0640E061E080E791E0B8
S11305E00E9435078FEF02C00E948A078F3FE1F314
S11305F0813329F0823369F08033E9F415C0B701FF
S113060081E00E94420781E0F60180830E9436095E
S113061021C0B70180E00E94420781E0F601808397
S113062080E00E94360916C083E00E94360981E00A
S1130630F60180830FC00E94AD068BE391E00E9417
S11306409A06FFEF23ED80E3F15020408040E1F76C
S113065000C000000F90DF91CF911F91FF90EF90A9
S1130660DF90CF9008950F931F93CF93DF931F9242
S1130670CDB7DEB78C016CEC70E0CE0101960E9420
S113068060070E94AD0681E891E00E949A06898184
S11306909FEF980F9E3F28F08BE991E00E949A0605
S11306A006C0813021F48DE691E00E949A064BE069
S11306B060E088E891E00E94350740E061E08FE85F
S11306C091E00E9435078FEF8093310204C00E94AD
S11306D08A0780933102809131028F3FC1F38133C5
S11306E029F0823361F08033E9F415C082E00E947E
S11306F036096CEC70E081E00E94420722C080E081
S11307000E9436096CEC70E080E00E94420781E0B0
S1130710F801808316C083E00E94360981E0F80165
S113072080830FC00E94AD068BE391E00E949A067D
S1130730FFEF23ED80E3F15020408040E1F700C05B
S113074000000F90DF91CF911F910F9108951F9397
S1130750CF93DF931F92CDB7DEB70E94F10A8FE9E2
S113076091E00E949A0646E061E08CEA91E00E94E2
S113077035072FEF83ED90E3215080409040E1F75F
S113078000C000000E94AD0610E081C00E94AD06CA
S113079040E060E087EB91E00E94350740E061E0D3
S11307A088EC91E00E9435078FEF8093310204C0FA
S11307B00E948A0780933102809131028F3FC1F3F6
S11307C0833361F128F4813349F08233B9F050C0A6
S11307D08433A1F1833409F441C04AC00E94AD06B8
S11307E0198208C080E00E94360968ECCE010196A7
S11307F00E94A30289818823A9F349C00E94AD06FF
S1130800198208C081E00E94360969ECCE01019684
S11308100E94A30289818823A9F339C00E94AD06EE
S1130820198208C082E00E9436096AECCE01019662
S11308300E94A30289818823A9F329C00E94AD06DE
S1130840198208C083E00E9436096BECCE01019640
S11308500E94A30289818823A9F319C040E066E0BD
S113086083E00E94140886E00E94360911E00FC05C
S11308700E94AD068BE391E00E949A062FEF83ED70
S113088090E3215080409040E1F700C00000112324
S113089009F47CCF0F90DF91CF911F9108950F93AE
S11308A01F93CF93DF931F92CDB7DEB70E94F10A57
S11308B08FE991E00E949A0646E061E08CEA91E0BB
S11308C00E9435072FEF83ED90E321508040904044
S11308D0E1F700C000000E94AD0600E0EDC00E94F8
S11308E0AD0640E060E087EB91E00E94350740E010
S11308F061E089ED91E00E9435078FEF809331022A
S113090004C00E948A0780933102809131028F3F94
S1130910C1F3833369F128F4813351F08233C1F098
S1130920BCC0843309F4AAC0833409F4ACC0B5C094
S11309300E94AD06198208C080E00E94360968EC66
S1130940CE0101960E94A30289818823A9F3B4C031
S11309500E94AD06198208C081E00E94360969EC44
S1130960CE0101960E94A30289818823A9F3A4C021
S11309700E94AD06198208C082E00E9436096AEC22
S1130980CE0101960E94A30289818823A9F394C011
S11309900E94AD0640E060E089EE91E00E943507D8
S11309A040E061E08AEF91E00E9435078FEF809389
S11309B0310204C00E948A0780933102809131027F
S11309C08F3FC1F3833359F128F4813349F08233E3
S11309D0B9F042C0843309F44FC0833491F13CC070
S11309E00E94AD06198208C083E00E9436096BECB0
S11309F0CE0101960E94A30289818823A9F33FC0F6
S1130A000E94AD06198285E00E94360904C0CE0119
S1130A1001960E94330389818823C9F330C086E09C
S1130A200E94360964E670E080E00E94420740E0DC
S1130A3066E083E00E9414080E94AD0611E001E024
S1130A401EC040E066E083E00E94140886E00E9435
S1130A50360911E001E013C00E94AD068BE391E07A
S1130A600E949A062FEF83ED90E32150804090403E
S1130A70E1F700C0000003C011E001C010E0112341
S1130A8009F486CF19C040E066E083E00E941408B0
S1130A9086E00E94360901E00FC00E94AD068BE398
S1130AA091E00E949A062FEF83ED90E3215080405D
S1130AB09040E1F700C00000002309F410CF0F902C
S1130AC0DF91CF911F910F9108950E9405080E9414
S1130AD07E060E94850780E00E948A0A0E94F2072F
S1130AE00E94260947E060E08BE092E00E9435070F
S1130AF043E061E08FE092E00E9435072FEF83ED41
S1130B0090E3215080409040E1F700C000000E9433
S1130B10AD060E9449001DC087E00E9436090E946C
S1130B204F0417C088E00E9436090E94A70311C031
S1130B300E94AD068BE391E00E949A062FEF83EDAD
S1130B4090E3215080409040E1F700C000000E94F3
S1130B50AD060E9449000E9448028823E9F28130D0
S1130B6009F3E6CFCF93C82F40E062E083E00E9410
S1130B70140840E063E083E00E941408C4FB4427A7
S1130B8040F964E081E00E941408C5FB442740F961
S1130B9065E081E00E941408C6FB442740F966E042
S1130BA081E00E9414084C2F441F4427441F67E02F
S1130BB081E00E94140841E064E083E00E9414088C
S1130BC08FEC97E00197F1F700C0000040E064E08B
S1130BD083E00E9414084C2F417064E081E00E947D
S1130BE01408C1FB442740F965E081E00E94140821
S1130BF0C2FB442740F966E081E00E941408C3FB6D
S1130C00442740F967E081E00E94140841E064E071
S1130C1083E00E9414088FE99FE00197F1F700C078
S1130C20000040E064E083E00E941408CF9108953E
S1130C30CF93C82F41E062E083E00E94140840E0B3
S1130C4063E083E00E941408C4FB442740F964E095
S1130C5081E00E941408C5FB442740F965E081E067
S1130C600E941408C6FB442740F966E081E00E9414
S1130C7014084C2F441F4427441F67E081E00E945E
S1130C80140841E064E083E00E9414088FEC97E0CC
S1130C900197F1F700C0000040E064E083E00E94A7
S1130CA014084C2F417064E081E00E941408C1FBD9
S1130CB0442740F965E081E00E941408C2FB442700
S1130CC040F966E081E00E941408C3FB442740F920
S1130CD067E081E00E94140841E064E083E00E9440
S1130CE014088FE99FE00197F1F700C0000040E08D
S1130CF064E083E00E941408CF9108952FEB8AEDFD
S1130D0090E0215080409040E1F700C0000082E074
S1130D100E94B20588E20E94B2058EE00E94B205EC
S1130D2081E00E94B2058FEC97E00197F1F700C0D3
S1130D30000008950F931F93CF938C01C0E003C06C
S1130D400E941806CF5FF801EC0FF11D808181111C
S1130D50F7CFCF911F910F91089581E00E94B205C2
S1130D608FEC97E00197F1F700C00000089590E43C
S1130D70899F600D1124862F80680E94B205089512
S1130D80CF92DF92EF92FF920F931F93CF93DF9353
S1130D90CDB7DEB72A970FB6F894DEBF0FBECDBF2E
S1130DA06B017C01672B682B692B19F480E30E948B
S1130DB01806FF2054F4F094E094D094C094C11C1D
S1130DC0D11CE11CF11C01E001C000E010E016C0E0
S1130DD0C701B6012AE030E040E050E00E94F30A87
S1130DE0E1E0F0E0EC0FFD1FE10FF11D17FDFA95B6
S1130DF06083C22ED32EE42EF52E1F5FC114D104BE
S1130E00E104F10429F7FF24FA94F10E013089F486
S1130E108DE20E9418060DC0E1E0F0E0EC0FFD1F2A
S1130E20EF0DF11DF7FCFA958081805D0E94180694
S1130E30FA94FF208CF72A960FB6F894DEBF0FBE03
S1130E40CDBFDF91CF911F910F91FF90EF90DF9075
S1130E50CF900895CF93C82F862F642F0E94B70692
S1130E608C2F0E941806CF910895CF93DF93EC0145
S1130E70862F642F0E94B706CE010E949A06DF9146
S1130E80CF9108951F93CF93DF93C82FD62F172F99
S1130E900E94970A812F80650E94B10A8D2F0E94BB
S1130EA0D00A8C2F0E94D00A0E94EE0A8FE19EE4A1
S1130EB00197F1F700C00000DF91CF911F910895D1
S1130EC00F931F93CF93DF938C01D62FC72F0E94CC
S1130ED0970AC0658C2F0E94B10A8D2F0E94D00AF8
S1130EE00E94A40A8C2F0E94C00AC8010E94DE0A34
S1130EF00E94EE0A8FE19EE40197F1F700C0000022
S1130F00DF91CF911F910F9108956FEF84E00E94BC
S1130F109E080895EF92FF920F931F93CF93DF9350
S1130F20CDB7DEB761970FB6F894DEBF0FBECDBF65
S1130F3080E1E2E6F0E0DE01119601900D928A95DF
S1130F40E1F7F12CEE24EA943CC040E06F2D84E0FC
S1130F500E94140800E02DC014E0100FAE014F5E93
S1130F605F4F612F84E00E94B7088989811120C0F6
S1130F70E02FF0E0EE0FFF1FEE0FFF1F81E090E087
S1130F808C0F9D1FE80FF91FEF0DF11DE0808FE618
S1130F9097E10197F1F700C0000007C0AE014F5E72
S1130FA05F4F612F84E00E94B70889898823B1F3D9
S1130FB00F5F043088F241E06F2D84E00E94140832
S1130FC0F39493E09F1508F68E2D61960FB6F8946E
S1130FD0DEBF0FBECDBFDF91CF911F910F91FF9068
S1130FE0EF90089587B1806487B987B18F7787B907
S1130FF087B18F7D87B986B1887F86B986B18360D2
S113100086B986B1806886B908958FEF8ABB8FEB65
S113101087BB8CEF84BB8FE081BB1BBA18BA83E01B
S113102085BB80EF82BB0895683008F07FC0411112
S11310303FC08230B1F018F4813031F079C0833090
S1131040E9F0843041F174C02BB381E090E002C038
S1131050880F991F6A95E2F7809582238BBB80E005
S1131060089528B381E090E002C0880F991F6A9523
S1131070E2F78095822388BB80E0089525B381E060
S113108090E002C0880F991F6A95E2F78095822349
S113109085BB80E0089522B381E090E002C0880F10
S11310A0991F6A95E2F78095822382BB80E00895B8
S11310B0413009F03FC08230A9F018F4813031F09A
S11310C03BC08330D9F0843029F136C02BB381E0A2
S11310D090E002C0880F991F6A95E2F7822B8BBBC0
S11310E080E0089528B381E090E002C0880F991F42
S11310F06A95E2F7822B88BB80E0089525B381E0EE
S113110090E002C0880F991F6A95E2F7822B85BB95
S113111080E0089522B381E090E002C0880F991F17
S11311206A95E2F7822B82BB80E0089581E00895FE
S113113081E0089581E0089581E00895823061F0AE
S113114018F4813031F011C0833049F0843051F00B
S11311500CC06BBB80E0089568BB80E0089565BB5C
S113116080E0089562BB80E0089581E008956830CE
S1131170F0F541155105E9F18230A9F018F48130F8
S113118031F039C08330D9F0843029F134C089B3C7
S113119090E002C0959587956A95E2F78170FA010F
S11311A0808380E0089586B390E002C0959587958A
S11311B06A95E2F78170FA01808380E0089583B331
S11311C090E002C0959587956A95E2F78170FA01DF
S11311D0808380E0089580B390E002C09595879560
S11311E06A95E2F78170FA01808380E0089581E0D6
S11311F0089581E0089581E008951F920F920FB63B
S11312000F9211242F933F934F935F936F937F9388
S11312108F939F93AF93BF93EF93FF93E0911B0240
S1131220F0911C02309709F00995FF91EF91BF915D
S1131230AF919F918F917F916F915F914F913F916A
S11312402F910F900FBE0F901F9018958DB1806154
S11312508DB98DB181608DB98DB18D7F8DB98EB110
S11312608E7F8EB98DB180648DB908958FB9779BC7
S1131270FECF8FB108951F920F920FB60F921124D3
S11312802F933F934F935F936F937F938F939F938A
S1131290AF93BF93EF93FF9320911F0230912002ED
S11312A080913402909135022817390759F4E0915E
S11312B02302F0912402309729F00995109220021C
S11312C010921F0280911F02909120020196909328
S11312D0200280931F02FF91EF91BF91AF919F91E4
S11312E08F917F916F915F914F913F912F910F90CB
S11312F00FBE0F901F9018951F920F920FB60F926A
S113130011242F933F934F935F936F937F938F9306
S11313109F93AF93BF93EF93FF9320911D0230915E
S11313201E0280913202909133022817390759F432
S1131330E0912102F0912202309729F00995109250
S11313401E0210921D0280911D0290911E020196B0
S113135090931E0280931D02FF91EF91BF91AF9174
S11313609F918F917F916F915F914F913F912F91B9
S11313700F900FBE0F901F9018951F920F920FB6EB
S11313800F9211240F900FBE0F901F9018951F926B
S11313900F920FB60F9211242F933F934F935F93A5
S11313A06F937F938F939F93AF93BF93EF93FF9329
S11313B02091290230912A028091360290913702BD
S11313C02817390759F4E0912D02F0912E02309735
S11313D029F0099510922A0210922902809129027B
S11313E090912A02019690932A0280932902FF91F8
S11313F0EF91BF91AF919F918F917F916F915F9189
S11314004F913F912F910F900FBE0F901F90189501
S11314101F920F920FB60F9211242F933F934F9365
S11314205F936F937F938F939F93AF93BF93EF9348
S1131430FF932091270230912802809138029091E5
S113144039022817390759F4E0912B02F0912C0244
S1131450309729F009951092280210922702809162
S113146027029091280201969093280280932702E4
S1131470FF91EF91BF91AF919F918F917F916F9168
S11314805F914F913F912F910F900FBE0F901F903E
S113149018951F920F920FB60F9211242F933F931A
S11314A04F935F936F937F938F939F93AF93BF9368
S11314B0EF93FF93209125023091260280913A0206
S11314C090913B022817390759F4E0912F02F091CB
S11314D03002309729F009951092260210922502C5
S11314E08091250290912602019690932602809382
S11314F02502FF91EF91BF91AF919F918F917F91C1
S11315006F915F914F913F912F910F900FBE0F906C
S11315101F901895882311F0880F82B981B18E7FAE
S113152081B981B18D7F81B982E080B9089584EA5F
S113153086BF06B607FEFDCF81B1887F883011F4DF
S113154080E0089581E0089584EA86BF06B607FE28
S1131550FDCF81B1887F803111F480E0089582E06D
S11315600895880F83B984EC86BF06B607FEFDCFC5
S113157081B1887F883111F480E0089583E0089573
S1131580880F816083B984EC86BF06B607FEFDCF61
S113159081B1887F803411F480E0089584E0089557
S11315A083B984EC86BF06B607FEFDCF81B1887F80
S11315B0883211F480E0089585E00895FC0184E800
S11315C086BF06B607FEFDCF91B1987F983511F41A
S11315D080E001C088E093B19083089584E986BFD8
S11315E0089516BE0895052E97FB1EF400940E94DC
S11315F00A0B57FD07D00E94120B07FC03D04EF4D0
S11316000C940A0B50954095309521953F4F4F4FC0
S11316105F4F089590958095709561957F4F8F4F9A
S11316209F4F0895A1E21A2EAA1BBB1BFD010DC0FA
S1131630AA1FBB1FEE1FFF1FA217B307E407F5077E
S113164020F0A21BB30BE40BF50B661F771F881F5A
S1131650991F1A9469F760957095809590959B01F0
S10F1660AC01BD01CF010895F894FFCF48
S113166C03053738392F3435362A3132332D43308C
S113167C3D2B4C6F67696E20666F72200046697251
S113168C73742054696D65005365742041646D69ED
S113169C6E20506173730041646D696E20506173E8
S11316AC733A200050617373776F726420536176C0
S11316BC65640053657420477565737420506173B9
S11316CC7300477565737420506173733A20004539
S11316DC6E7465722050617373776F726400526913
S11316EC6768742050617373776F72640057726FFC
S11316FC6E672050617373776F72640054726965FE
S113170C73204C6566743A2000426C6F636B204600
S113171C6F72203230205365636F6E640053656CB6
S113172C656374204D6F6465203A00302D41646DFF
S113173C696E20312D47756573740057726F6E672F
S113174C2043686F6963652E00526F6F6D312053AF
S113175C3A00526F6F6D3220533A00526F6F6D33F3
S113176C20533A00526F6F6D3420533A004F4E00A1
S113177C312D4F4E20322D4F464620302D5245549C
S113178C0046616E20533A00302D524554200031EE
S113179C2D434F4E54524F4C20322D4F464600434E
S11317AC686F6F736520526F6F6D2000746F2043E8
S11317BC6F6E74726F6C00313A526F6F6D31202002
S11317CC323A526F6F6D3200333A526F6F6D332071
S11317DC20343A526F6F6D3400333A526F6F6D335D
S11317EC2020343A4D6F726500313A526F6F6D346C
S11317FC09202020323A46616E00333A52657365F3
S113180C7409202020343A52657400495449005319
S10D181C4D41525420484F4D450041
S9030000FC
