:100000000C942A000C94FE020C943C000C943C00CE
:100010000C943C000C943C000C940F040C941904B8
:100020000C945A040C949B040C94CE030C948D03F2
:100030000C9446030C943C000C943C000C943C0043
:100040000C943C000C943C000C943C000C943C0040
:100050000C943C0011241FBECFE5D8E0DEBFCDBF1D
:1000600020E0A0E6B0E001C01D92A538B207E1F79C
:100070000E94E5010C9445050C9400000E94370392
:1000800081111DC02FEF80E792E021508040904009
:10009000E1F700C0000080E090E00E947A032FEFBB
:1000A00080E792E0215080409040E1F700C00000DE
:1000B0000E94830381E080937900809360000E9416
:1000C000420308950F931F93CF93DF9300D000D086
:1000D0001F92CDB7DEB768EC70E0CE0101960E94AA
:1000E0001D0269EC70E0CE0102960E941D026AECCE
:1000F00070E0CE0103960E941D026BEC70E0CE0111
:1001000004960E941D026CEC70E0CE0105960E94E0
:100110001D028981813029F441E062E083E00E9480
:1001200074028A81813029F441E063E083E00E9417
:1001300074028B81813029F441E064E083E00E9405
:1001400074028C81813029F441E065E083E00E94F3
:1001500074028D81813069F480E00E9455028C0127
:100160000E947C03C80196958795969587950E9475
:100170007A030F900F900F900F900F90DF91CF9117
:100180001F910F9108951F93CF93DF93182FD62FB0
:10019000C0E018C080E00E943203813021F050F0AE
:1001A000833079F00FC041E06D2F812F0E947402DF
:1001B000C1E008C040E06D2F812F0E947402C1E0B1
:1001C00001C0C1E0CC2331F3DF91CF911F9108959D
:1001D0001092600035C080E00E94320380937A0064
:1001E000823029F0833049F181112AC019C0109260
:1001F00079008EE390E00E9439030E947C030E9404
:100200003E0309C080E00E94550296958795969519
:1002100087950E947A0380917900882399F310C012
:1002200041E064E083E00E94740280E090E00E947C
:100230007A0381E08093600003C081E080936000D6
:1002400080916000882339F20895CF932FEF86E1E3
:1002500091E1215080409040E1F700C000000E94F1
:1002600062000E944305C0E039C080E00E94320372
:10027000823029F128F4882371F08130B1F02EC04A
:10028000833039F1863049F129C062E083E00E9471
:10029000C30081E001C080E08823B9F31FC063E0A0
:1002A00083E00E94C30081E001C080E08823B9F3AD
:1002B00015C064E083E00E94C30081E001C080E0DB
:1002C0008823B9F30BC065E083E00E94C30081E09E
:1002D00001C080E08823B9F301C0C1E0CC2329F23A
:1002E000CF91089540E062E083E00E94740240E014
:1002F00063E083E00E94740240E064E083E00E94D7
:10030000740240E065E083E00E94740280E090E0C7
:100310000E947A030895CF932FEF86E191E1215057
:1003200080409040E1F700C000000E9462000E94FF
:100330004305C0E045C080E00E943203823039F1BD
:1003400028F4882381F08130C1F03AC0853089F1EA
:10035000863099F18330A1F524C062E083E00E94E9
:10036000C30081E001C080E08823B9F329C063E0C5
:1003700083E00E94C30081E001C080E08823B9F3DC
:100380001FC064E083E00E94C30081E001C080E000
:100390008823B9F315C065E083E00E94C30081E0C3
:1003A00001C080E08823B9F30BC00E94E80081E01F
:1003B00001C080E08823C9F303C00E947201C1E03C
:1003C000CC2309F4B8CFCF9108950E9468020E940F
:1003D0006D030E9442020E942B030E94270380E0CB
:1003E0000E94DC0428C080E00E943203C82F8530C0
:1003F00099F441E066E083E00E9474022FEF84E309
:100400009CE0215080409040E1F700C0000040E0B7
:1004100066E083E00E947402C53029F380E00E9408
:100420003203873019F0883021F005C00E948B011B
:1004300002C00E942501C5E0EFCF0F931F93CF9319
:10044000DF938C01D62FC72F0E94E904C0658C2F43
:100450000E9403058D2F0E9422050E94F6048C2F16
:100460000E941205C8010E9430050E9440058FE1DC
:100470009EE40197F1F700C00000DF91CF911F913A
:100480000F91089587B1806487B987B18F7787B955
:1004900087B18F7D87B986B1887F86B986B1836041
:1004A00086B986B1806886B9089597B1907E97B96C
:1004B00097B1892B87B986B1806486B901C00000E5
:1004C000349BFDCF86B1806186B984B195B1089522
:1004D0001ABA88E487BB8CE784BB11BA1BBA18BA76
:1004E00083E085BB12BA0895683008F07FC04111DF
:1004F0003FC08230B1F018F4813031F079C08330E0
:10050000E9F0843041F174C02BB381E090E002C087
:10051000880F991F6A95E2F7809582238BBB80E054
:10052000089528B381E090E002C0880F991F6A9572
:10053000E2F78095822388BB80E0089525B381E0AF
:1005400090E002C0880F991F6A95E2F78095822398
:1005500085BB80E0089522B381E090E002C0880F5F
:10056000991F6A95E2F78095822382BB80E0089507
:10057000413009F03FC08230A9F018F4813031F0E9
:100580003BC08330D9F0843029F136C02BB381E0F1
:1005900090E002C0880F991F6A95E2F7822B8BBB0F
:1005A00080E0089528B381E090E002C0880F991F91
:1005B0006A95E2F7822B88BB80E0089525B381E03D
:1005C00090E002C0880F991F6A95E2F7822B85BBE5
:1005D00080E0089522B381E090E002C0880F991F67
:1005E0006A95E2F7822B82BB80E0089581E008954E
:1005F00081E0089581E0089581E008951F920F92AF
:100600000FB60F9211242F933F934F935F936F93E5
:100610007F938F939F93AF93BF93EF93FF93E0915B
:100620006100F0916200309709F00995FF91EF9118
:10063000BF91AF919F918F917F916F915F914F91FA
:100640003F912F910F900FBE0F901F9018958FB76D
:1006500080688FBF08958DB18F7E8DB98DB1806414
:100660008DB908958FB9779BFECF8FB108958FB163
:100670000895909364008093630008958DB180681D
:100680008DB908958DB18F778DB908951F920F920E
:100690000FB60F9211242F933F934F935F936F9355
:1006A0007F938F939F93AF93BF93EF93FF93E091CB
:1006B0006300F09164000995FF91EF91BF91AF91B4
:1006C0009F918F917F916F915F914F913F912F916A
:1006D0000F900FBE0F901F90189583B7877B83BF35
:1006E00083B7886483BF83B78F7C83BF83B78062FF
:1006F00083BF08958CBF089583B7887F83BF83B776
:10070000826083BF089583B78E7F83BF83B78D7F59
:1007100083BF83B78B7F83BF08951F920F920FB65D
:100720000F9211242F933F934F935F936F937F9377
:100730008F939F93AF93BF93EF93FF9320916700A5
:100740003091680080917D0090917E0028173907D4
:1007500059F4E0916B00F0916C00309729F0099505
:100760001092680010926700809167009091680075
:1007700001969093680080936700FF91EF91BF917D
:10078000AF919F918F917F916F915F914F913F9129
:100790002F910F900FBE0F901F9018951F920F92E0
:1007A0000FB60F9211242F933F934F935F936F9344
:1007B0007F938F939F93AF93BF93EF93FF9320917A
:1007C00065003091660080917B0090917C00281735
:1007D000390759F4E0916900F0916A00309729F0E7
:1007E00009951092660010926500809165009091C5
:1007F000660001969093660080936500FF91EF91EB
:10080000BF91AF919F918F917F916F915F914F9128
:100810003F912F910F900FBE0F901F9018951F9230
:100820000F920FB60F9211240F900FBE0F901F90D2
:1008300018951F920F920FB60F9211242F933F938A
:100840004F935F936F937F938F939F93AF93BF93D8
:10085000EF93FF93209171003091720080917F009F
:10086000909180002817390759F4E0917500F091B4
:100870007600309729F0099510927200109271005D
:100880008091710090917200019690937200809314
:100890007100FF91EF91BF91AF919F918F917F91E7
:1008A0006F915F914F913F912F910F900FBE0F90DD
:1008B0001F9018951F920F920FB60F9211242F932D
:1008C0003F934F935F936F937F938F939F93AF93D8
:1008D000BF93EF93FF9320916F0030917000809150
:1008E0008100909182002817390759F4E091730034
:1008F000F0917400309729F00995109270001092D1
:100900006F0080916F00909170000196909370003D
:1009100080936F00FF91EF91BF91AF919F918F9165
:100920007F916F915F914F913F912F910F900FBEEB
:100930000F901F9018951F920F920FB60F921124CF
:100940002F933F934F935F936F937F938F939F93D7
:10095000AF93BF93EF93FF9320916D0030916E00A2
:1009600080918300909184002817390759F4E09111
:100970007700F0917800309729F0099510926E0079
:1009800010926D0080916D0090916E000196909391
:100990006E0080936D00FF91EF91BF91AF919F9199
:1009A0008F917F916F915F914F913F912F910F9018
:1009B0000FBE0F901F901895882311F0880F82B9F1
:1009C00081B18E7F81B981B18D7F81B982E080B99B
:1009D000089584EA86BF06B607FEFDCF81B1887F01
:1009E000883011F480E0089581E0089584EA86BF9C
:1009F00006B607FEFDCF81B1887F803111F480E01B
:100A0000089582E00895880F83B984EC86BF06B606
:100A100007FEFDCF81B1887F883111F480E0089511
:100A200083E00895880F816083B984EC86BF06B6A1
:100A300007FEFDCF81B1887F803411F480E00895F6
:100A400084E0089583B984EC86BF06B607FEFDCF27
:100A500081B1887F883211F480E0089585E008959F
:100A6000FC0184E886BF06B607FEFDCF91B1987FF2
:100A7000983511F480E001C088E093B19083089527
:0E0A800084E986BF089516BE0895F894FFCF4E
:00000001FF
